{
  "_format": "hh-sol-artifact-1",
  "contractName": "LandRegistry",
  "sourceName": "contracts/LandRegistry.sol",
  "abi": [
    {
      "anonymous": false,
      "inputs": [
        {
          "indexed": true,
          "internalType": "uint256",
          "name": "landId",
          "type": "uint256"
        },
        {
          "indexed": true,
          "internalType": "address",
          "name": "owner",
          "type": "address"
        },
        {
          "indexed": false,
          "internalType": "string",
          "name": "details",
          "type": "string"
        }
      ],
      "name": "LandAdded",
      "type": "event"
    },
    {
      "anonymous": false,
      "inputs": [
        {
          "indexed": true,
          "internalType": "uint256",
          "name": "landId",
          "type": "uint256"
        }
      ],
      "name": "LandApproved",
      "type": "event"
    },
    {
      "inputs": [
        {
          "internalType": "uint256",
          "name": "landId",
          "type": "uint256"
        },
        {
          "internalType": "string",
          "name": "details",
          "type": "string"
        }
      ],
      "name": "addLand",
      "outputs": [],
      "stateMutability": "nonpayable",
      "type": "function"
    },
    {
      "inputs": [
        {
          "internalType": "uint256",
          "name": "landId",
          "type": "uint256"
        }
      ],
      "name": "approveLand",
      "outputs": [],
      "stateMutability": "nonpayable",
      "type": "function"
    },
    {
      "inputs": [
        {
          "internalType": "uint256",
          "name": "",
          "type": "uint256"
        }
      ],
      "name": "lands",
      "outputs": [
        {
          "internalType": "address",
          "name": "owner",
          "type": "address"
        },
        {
          "internalType": "string",
          "name": "details",
          "type": "string"
        },
        {
          "internalType": "bool",
          "name": "isApproved",
          "type": "bool"
        }
      ],
      "stateMutability": "view",
      "type": "function"
    }
  ],
  "bytecode": "0x6080604052348015600f57600080fd5b50610b4d8061001f6000396000f3fe608060405234801561001057600080fd5b50600436106100415760003560e01c806306266fcd1461004657806338c887b214610062578063e261f1e51461007e575b600080fd5b610060600480360381019061005b919061059d565b6100b0565b005b61007c600480360381019061007791906105f9565b6101c9565b005b610098600480360381019061009391906105f9565b61032e565b6040516100a793929190610701565b60405180910390f35b60405180606001604052803373ffffffffffffffffffffffffffffffffffffffff1681526020018281526020016000151581525060008084815260200190815260200160002060008201518160000160006101000a81548173ffffffffffffffffffffffffffffffffffffffff021916908373ffffffffffffffffffffffffffffffffffffffff1602179055506020820151816001019081610152919061094b565b5060408201518160020160006101000a81548160ff0219169083151502179055509050503373ffffffffffffffffffffffffffffffffffffffff16827f2f25d8d395adde157e78c84f5e787a2570dc20cc9f04407e50e540a742c3b025836040516101bd9190610a1d565b60405180910390a35050565b600073ffffffffffffffffffffffffffffffffffffffff1660008083815260200190815260200160002060000160009054906101000a900473ffffffffffffffffffffffffffffffffffffffff1673ffffffffffffffffffffffffffffffffffffffff160361026d576040517f08c379a000000000000000000000000000000000000000000000000000000000815260040161026490610a8b565b60405180910390fd5b60008082815260200190815260200160002060020160009054906101000a900460ff16156102d0576040517f08c379a00000000000000000000000000000000000000000000000000000000081526004016102c790610af7565b60405180910390fd5b600160008083815260200190815260200160002060020160006101000a81548160ff021916908315150217905550807f91ec7a228989c78928a20eb7fb3443491bc7f1432d0d343373e7175fdc99d7e760405160405180910390a250565b60006020528060005260406000206000915090508060000160009054906101000a900473ffffffffffffffffffffffffffffffffffffffff16908060010180546103779061076e565b80601f01602080910402602001604051908101604052809291908181526020018280546103a39061076e565b80156103f05780601f106103c5576101008083540402835291602001916103f0565b820191906000526020600020905b8154815290600101906020018083116103d357829003601f168201915b5050505050908060020160009054906101000a900460ff16905083565b6000604051905090565b600080fd5b600080fd5b6000819050919050565b61043481610421565b811461043f57600080fd5b50565b6000813590506104518161042b565b92915050565b600080fd5b600080fd5b6000601f19601f8301169050919050565b7f4e487b7100000000000000000000000000000000000000000000000000000000600052604160045260246000fd5b6104aa82610461565b810181811067ffffffffffffffff821117156104c9576104c8610472565b5b80604052505050565b60006104dc61040d565b90506104e882826104a1565b919050565b600067ffffffffffffffff82111561050857610507610472565b5b61051182610461565b9050602081019050919050565b82818337600083830152505050565b600061054061053b846104ed565b6104d2565b90508281526020810184848401111561055c5761055b61045c565b5b61056784828561051e565b509392505050565b600082601f83011261058457610583610457565b5b813561059484826020860161052d565b91505092915050565b600080604083850312156105b4576105b3610417565b5b60006105c285828601610442565b925050602083013567ffffffffffffffff8111156105e3576105e261041c565b5b6105ef8582860161056f565b9150509250929050565b60006020828403121561060f5761060e610417565b5b600061061d84828501610442565b91505092915050565b600073ffffffffffffffffffffffffffffffffffffffff82169050919050565b600061065182610626565b9050919050565b61066181610646565b82525050565b600081519050919050565b600082825260208201905092915050565b60005b838110156106a1578082015181840152602081019050610686565b60008484015250505050565b60006106b882610667565b6106c28185610672565b93506106d2818560208601610683565b6106db81610461565b840191505092915050565b60008115159050919050565b6106fb816106e6565b82525050565b60006060820190506107166000830186610658565b818103602083015261072881856106ad565b905061073760408301846106f2565b949350505050565b7f4e487b7100000000000000000000000000000000000000000000000000000000600052602260045260246000fd5b6000600282049050600182168061078657607f821691505b6020821081036107995761079861073f565b5b50919050565b60008190508160005260206000209050919050565b60006020601f8301049050919050565b600082821b905092915050565b6000600883026108017fffffffffffffffffffffffffffffffffffffffffffffffffffffffffffffffff826107c4565b61080b86836107c4565b95508019841693508086168417925050509392505050565b6000819050919050565b600061084861084361083e84610421565b610823565b610421565b9050919050565b6000819050919050565b6108628361082d565b61087661086e8261084f565b8484546107d1565b825550505050565b600090565b61088b61087e565b610896818484610859565b505050565b5b818110156108ba576108af600082610883565b60018101905061089c565b5050565b601f8211156108ff576108d08161079f565b6108d9846107b4565b810160208510156108e8578190505b6108fc6108f4856107b4565b83018261089b565b50505b505050565b600082821c905092915050565b600061092260001984600802610904565b1980831691505092915050565b600061093b8383610911565b9150826002028217905092915050565b61095482610667565b67ffffffffffffffff81111561096d5761096c610472565b5b610977825461076e565b6109828282856108be565b600060209050601f8311600181146109b557600084156109a3578287015190505b6109ad858261092f565b865550610a15565b601f1984166109c38661079f565b60005b828110156109eb578489015182556001820191506020850194506020810190506109c6565b86831015610a085784890151610a04601f891682610911565b8355505b6001600288020188555050505b505050505050565b60006020820190508181036000830152610a3781846106ad565b905092915050565b7f4c616e64206e6f7420666f756e64000000000000000000000000000000000000600082015250565b6000610a75600e83610672565b9150610a8082610a3f565b602082019050919050565b60006020820190508181036000830152610aa481610a68565b9050919050565b7f4c616e6420616c726561647920617070726f7665640000000000000000000000600082015250565b6000610ae1601583610672565b9150610aec82610aab565b602082019050919050565b60006020820190508181036000830152610b1081610ad4565b905091905056fea2646970667358221220a3be8befe9506c6e284c75c6a8171081802b83a020b3c65584cb76aa4e44d18664736f6c634300081b0033",
  "linkReferences": {},
  "deployedLinkReferences": {}
}